:020000040800F2
:1000000000000220010A0008FD0900087D540008D4
:10001000FD090008FD090008FD09000800000000B6
:10002000000000000000000000000000FD090008C2
:10003000FD09000800000000FD0900080154000847
:10004000FD090008FD090008FD090008FD09000878
:10005000FD090008FD090008FD090008FD09000868
:10006000FD090008FD090008FD0900080950000805
:1000700015500008613F0008215000082D5000086D
:100080001D08010835450008FD090008FD090008A4
:10009000FD090008FD090008FD090008FD09000828
:1000A000FD090008FD090008FD090008FD09000818
:1000B000DDFB0008E9FB0008F5FB000869450008C6
:1000C000FD09000875450008FD0900084DF4000809
:1000D00059F400085106010881060108B506010817
:1000E000FD090008FD09000800000000FD090008E6
:1000F000FD090008FD090008FD090008FD090008C8
:10010000FD090008FD09000801FC000865F400086D
:10011000E90601081D070108FD090008FD0900089E
:10012000FD090008FD09000889F40008BDF4000875
:1001300051080108FD090008FD090008FD09000833
:1001400000000000000000000000000000000000AF
:10015000FD090008FD090008FD0900085107010814
:1001600081450008FD0900081154000835540008B5
:10017000FD09000859540008FD090008FD090008A0
:10018000FD090008FD09000885070108B5070108F9
:1001900071F400087DF40008FD090008FD0900085D
:1001A000FD090008FD090008FD090008FD09000817
:1001B000294D0008FD090008FD090008FD09000897
:1001C000FD090008FD090008D5380008E1380008DD
:1001D000FD090008ED380008FD090008FD090008C8
:1001E000FD090008FD090008FD090008FD090008D7
:1001F000FD090008FD090008FD090008FD090008C7
:10020000FD090008FD090008FD090008FD090008B6
:10021000FD090008FD090008FD090008FD090008A6
:10022000FD090008FD090008FD09000800000000A4
:10023000FD090008FD09000800000000FD09000894
:10024000FD090008FD090008FD090008FD09000876
:10025000FD090008FD090008FD090008FD09000866
:10026000FD090008FD090008FD090008FD09000856
:10027000FD090008FD090008E90701080000000069
:10028000FD090008FD090008FD0900080000000044
:0802900000000000FD09000858
:1002A00010B5054C237833B9044B13B10448AFF3B0
:1002B00000800123237010BD1806002400000000F8
:1002C000606E010808B5034B1BB103490348AFF347
:1002D000008008BD000000001C060024606E0108BC
:1002E00001F0FF01102A2BDB10F0070F08D010F8E7
:1002F000013B013A8B422DD010F0070F42B3F6D1EB
:10030000F0B441EA012141EA014122F007047FF003
:1003100000070023F0E80256083C85EA010586EA5A
:10032000010685FA47F5A3FA87F586FA47F6A5FA96
:1003300087F68EB9EED1F0BC01F0FF0102F00702A2
:1003400032B110F8013B013A83EA010313B1F8D14D
:100350000020704701387047002D06BF354603382E
:10036000073815F0010F07D1013015F4807F02BF67
:10037000013015F4C03F0130F0BC0138704700BFB8
:1003800081F0004102E000BF83F0004330B54FEA46
:1003900041044FEA430594EA050F08BF90EA020FB3
:1003A0001FBF54EA000C55EA020C7FEA645C7FEA46
:1003B000655C00F0E2804FEA5454D4EB5555B8BF69
:1003C0006D420CDD2C4480EA020281EA030382EADA
:1003D000000083EA010180EA020281EA0303362D6C
:1003E00088BF30BD11F0004F4FEA01314FF4801C3F
:1003F0004CEA113102D0404261EB410113F0004F51
:100400004FEA03334CEA133302D0524263EB430307
:1004100094EA050F00F0A780A4F10104D5F1200EA5
:100420000DDB02FA0EFC22FA05F2801841F1000100
:1004300003FA0EF2801843FA05F359410EE0A5F1D4
:1004400020050EF1200E012A03FA0EFC28BF4CF005
:10045000020C43FA05F3C01851EBE37101F00045BB
:1004600007D54FF0000EDCF1000C7EEB00006EEBC8
:100470000101B1F5801F1BD3B1F5001F0CD3490852
:100480005FEA30004FEA3C0C04F101044FEA4452A9
:1004900012F5800F80F09A80BCF1004F08BF5FEA30
:1004A000500C50F1000041EB045141EA050130BD10
:1004B0005FEA4C0C404141EB0101013C28BFB1F522
:1004C000801FE9D291F0000F04BF01460020B1FA6D
:1004D00081F308BF2033A3F10B03B3F120020CDA40
:1004E0000C3208DD02F1140CC2F10C0201FA0CF01E
:1004F00021FA02F10CE002F11402D8BFC2F1200C83
:1005000001FA02F120FA0CFCDCBF41EA0C01904038
:10051000E41AA2BF01EB0451294330BD6FEA040481
:100520001F3C1CDA0C340EDC04F11404C4F120026C
:1005300020FA04F001FA02F340EA030021FA04F37E
:1005400045EA030130BDC4F10C04C4F1200220FAD5
:1005500002F001FA04F340EA0300294630BD21FA13
:1005600004F0294630BD94F0000F83F4801306BFD9
:1005700081F480110134013D4EE77FEA645C18BFCD
:100580007FEA655C29D094EA050F08BF90EA020F64
:1005900005D054EA000C04BF1946104630BD91EA5C
:1005A000030F1EBF0021002030BD5FEA545C05D15F
:1005B0004000494128BF41F0004130BD14F580049E
:1005C0003CBF01F5801130BD01F0004545F0FE4112
:1005D00041F470014FF0000030BD7FEA645C1ABF47
:1005E000194610467FEA655C1CBF0B46024650EA7E
:1005F000013406BF52EA033591EA030F41F40021AA
:1006000030BD00BF90F0000F04BF0021704730B52F
:100610004FF4806404F132044FF000054FF0000104
:1006200050E700BF90F0000F04BF0021704730B5C5
:100630004FF4806404F1320410F0004548BF40429A
:100640004FF000013EE700BF42004FEAE2014FEAEF
:1006500031014FEA02701FBF12F07F4393F07F4FCA
:1006600081F06051704732F07F4208BF704793F0CD
:100670007F4F04BF41F40021704730B54FF46074E0
:1006800001F0004521F000411CE700BF50EA0102E3
:1006900008BF704730B54FF000050AE050EA01028C
:1006A00008BF704730B511F0004502D5404261EBFC
:1006B00041014FF4806404F132045FEA915C3FF43D
:1006C000D8AE4FF003025FEADC0C18BF03325FEADA
:1006D000DC0C18BF033202EBDC02C2F1200300FA8B
:1006E00003FC20FA02F001FA03FE40EA0E0021FAB0
:1006F00002F11444BDE600BF53B94AB9002908BF4E
:1007000000281CBF4FF0FF314FF0FF3000F074B9EC
:10071000ADF1080C6DE904CE00F006F8DDF804E058
:10072000DDE9022304B070472DE9F047089D044637
:100730008E46002B4DD18A42944669D9B2FA82F294
:1007400052B101FA02F3C2F1200120FA01F10CFAD0
:1007500002FC41EA030E94404FEA1C48210CBEFB08
:10076000F8F61FFA8CF708FB16E341EA034306FB91
:1007700007F199420AD91CEB030306F1FF3080F020
:100780001F81994240F21C81023E63445B1AA4B26D
:10079000B3FBF8F008FB103344EA034400FB07F70F
:1007A000A7420AD91CEB040400F1FF3380F00A8150
:1007B000A74240F207816444023840EA0640E41B45
:1007C00000261DB1D4400023C5E900433146BDE8F1
:1007D000F0878B4209D9002D00F0EF800026C5E993
:1007E000000130463146BDE8F087B3FA83F6002EAB
:1007F0004AD18B4202D3824200F2F980841A61EB23
:10080000030301209E46002DE0D0C5E9004EDDE740
:1008100002B9FFDEB2FA82F2002A40F09280A1EB28
:100820000C014FEA1C471FFA8CFE0126200CB1FB7D
:10083000F7F307FB131140EA01410EFB03F0884276
:1008400008D91CEB010103F1FF3802D2884200F203
:10085000CB804346091AA4B2B1FBF7F007FB101195
:1008600044EA01440EFB00FEA64508D91CEB040433
:1008700000F1FF3102D2A64500F2BB800846A4EB8E
:100880000E0440EA03409CE7C6F12007B34022FA79
:1008900007FC4CEA030C20FA07F401FA06F31C43A8
:1008A000F9404FEA1C4900FA06F3B1FBF9F8200CB5
:1008B0001FFA8CFE09FB181140EA014108FB0EF0FB
:1008C000884202FA06F20BD91CEB010108F1FF3A4B
:1008D00080F08880884240F28580A8F10208614457
:1008E000091AA4B2B1FBF9F009FB101144EA014165
:1008F00000FB0EFE8E4508D91CEB010100F1FF3410
:100900006CD28E456AD90238614440EA0840A0FBA7
:100910000294A1EB0E01A142C846A64656D353D07D
:100920005DB1B3EB080261EB0E0101FA07F722FAA1
:1009300006F3F1401F43C5E9007100263146BDE8CA
:10094000F087C2F12003D8400CFA02FC21FA03F32D
:10095000914001434FEA1C471FFA8CFEB3FBF7F0AE
:1009600007FB10360B0C43EA064300FB0EF69E42D3
:1009700004FA02F408D91CEB030300F1FF382FD26C
:100980009E422DD9023863449B1B89B2B3FBF7F614
:1009900007FB163341EA034106FB0EF38B4208D9ED
:1009A0001CEB010106F1FF3816D28B4214D9023E2E
:1009B0006144C91A46EA004638E72E46284605E74C
:1009C0000646E3E61846F8E64B45A9D2B9EB02081D
:1009D00064EB0C0E0138A3E74646EAE7204694E7AD
:1009E0004046D1E7D0467BE7023B614432E73046E0
:1009F00009E76444023842E7704700BFFEE700BFE2
:100A00000B480C4A904203D0121A0B4914F078FAA2
:100A10000A480B4A904203D0121A002114F07EFAC1
:100A200004F056FF14F038FA00F07AFEFEE700BF3B
:100A30000000002418060024986E010818060024FF
:100A40006C9C0124704700BF704700BF704700BF17
:100A5000704700BF704700BF704700BF704700BFBE
:100A6000704700BF704700BF002A00F019812DE9D0
:100A7000F84F0E46174600248A4DDFF878B2DFF8AB
:100A800078A2DFF87892DFF878822DED048B297850
:100A9000F7EE008A844812F0E1FE8448B0EE408A06
:100AA0009BED000A01F004FADAED007A99ED000AF4
:100AB0007E48A7EE880A01F04DFA7D4801F002FB5E
:100AC000DFED7C7A38EEC00A9FED7B7AB0EE679A54
:100AD0007648A0EE079A89FE279A01F0CBF977486D
:100AE000F0EE409A13F044FAB0EE408A704801F0FC
:100AF000E9FA734889FE689A20EE088A13F038FAFA
:100B00007048A9EE898AB0EE480A12F05FFF297892
:100B10006548B0EE409A12F0A1FE6B48B0EE408AF4
:100B200001F0D0FAF6EE005A98ED007AF3EE007A72
:100B3000DFED666AB3EE046A6548A8EE250A67EE43
:100B4000277AB0EE688AC7FE867AC7FEE67A37EE65
:100B5000E87AA0EE078A88FE288A88FE678AB0EEC7
:100B6000480A13F041F9B0EE480A5A4813F03CF92C
:100B7000B5EEC08AF1EE10FA04DD88EE880A564818
:100B800013F08EF85248B0EE490A13F0C9F85248F3
:100B9000B0EE490A13F02CF85048B0EE408A01F04C
:100BA00091FABEEECF0A10EE103A032B03D8DFE81D
:100BB00003F0614B35049FED4A8A4A4801F082FAFE
:100BC0002978494812F04AFE4848B0EE409A01F0B0
:100BD00079FA4748F0EE408A01F074FAF0EE407A74
:100BE000F7EE006A9FED3E7AD6E90032E9EE287A08
:100BF00002EB840203EB84030134C7FE877AC7FE4D
:100C0000E67A28EE270AA74282ED000A83ED000A61
:100C10007FF43DAFBDEC048BBDE8F88F2C4B314821
:100C200093ED0E8A01F04EFAF6EE007AB4EEE70A82
:100C3000F1EE10FAC4DDB0EE480A264813F070F861
:100C4000244890ED0E8ABBE7214B264893ED0D8A90
:100C500001F038FAF6EE007AB4EEE70AF1EE10FA97
:100C6000AEDDB0EE480A1B4813F05AF8194890ED73
:100C70000D8AA5E7164B1B4893ED0C8A01F022FA6A
:100C8000F6EE007AB4EEE70AF1EE10FA98DDB0EE77
:100C9000480A104813F044F80E4890ED0C8A8FE78C
:100CA000704700BF1C9D0024442F012420300124E4
:100CB000C82F0124CDCC4C3FCCCC4C3EE02F01249E
:100CC000549E0024089D0024B89D002400409C46AA
:100CD000209D00246C9D0024DC060024009E00243E
:100CE00000000000D09D0024340600249406002457
:100CF000C4060024149D0024C42F0124BC2F012409
:100D0000302F01242DE9F041144F064600F12C0448
:100D100000F1480C3D4607F11C0E4FF044080FCD82
:100D20000FC495E8070084E80700BEE80F00ACE8B0
:100D30000F009EE807008CE8070007F138014246E3
:100D400006F1640014F0DCF8424607F17C0106F17C
:100D5000A80014F0D5F83046BDE8F08180640108A1
:100D600010B5534C02212DED028BB7EE008A82B0F4
:100D7000204603F099F84F4838EE400A8DED010AFD
:100D800001F042F99DED010A4B4801F03DF90321C4
:100D9000204603F089F838EE400A48488DED010AF4
:100DA00001F032F99DED010A454801F02DF90421C9
:100DB000204603F079F838EE400A42488DED010AEA
:100DC00001F022F99DED010A3F4801F01DF90621CD
:100DD000204603F069F838EE400A3C488DED010AE0
:100DE00001F012F99DED010A394801F00DF90721D2
:100DF000204603F059F838EE400A36488DED010AD6
:100E000001F002F99DED010A334801F0FDF80821D7
:100E1000204603F049F838EE400A30488DED010ACB
:100E200001F0F2F89DED010A2D4801F0EDF80921DD
:100E3000204603F039F838EE400A2A488DED010AC1
:100E400001F0E2F89DED010A274801F0DDF82046A7
:100E5000002103F029F838EE400A244B20460121F6
:100E600083ED000A03F020F838EE400A204B2046BC
:100E7000052183ED000A03F017F838EE400A1D4BF8
:100E800020460A2183ED000A03F00EF838EE400AEE
:100E9000194B0B21204683ED000A03F005F838EECC
:100EA000400A164B83ED000A02B0BDEC028B10BD68
:100EB000309E0024C82F012408300124B89D00244E
:100EC000009E0024E89D0024D09D0024742F01245E
:100ED00064060024A42F0124AC0600248C2F0124D6
:100EE0007C060024C406002494060024149D0024DB
:100EF000BC2F0124189D0024C42F0124C02F0124DD
:100F000008B51E4801F0DEF8F1EE087A20EE270A57
:100F1000BDEEC00A10EE103A052B0AD8DFE803F048
:100F20000A11181F260316490720164B02220870C3
:100F30001A6008BD12490020124B012208701A6085
:100F400008BD0F4900200F4B022208701A6008BD2F
:100F50000B4905200B4B012208701A6008BD084997
:100F60000520084B022208701A6008BD04490720BA
:100F7000044B012208701A6008BD00BF083001242C
:100F8000E02F012410000024F0B50024C1B0022598
:100F900001268DF805400DA88DF80450042701990D
:100FA00002F07AFD03238DF808400DF145008DF81D
:100FB0000930029902F070FD8DF80C608DF80D601B
:100FC0000DF15600039902F067FD07238DF81040DC
:100FD0000DF167008DF81130049902F05DFD0623D4
:100FE0008DF814401EA88DF81530059902F054FDB7
:100FF0008DF819608DF818500DF18900069902F0EE
:101000004BFD8DF81C508DF81D700DF19A0007995D
:1010100002F042FD05238DF820400DF1AB008DF864
:101020002130089902F038FD8DF824408DF82570A4
:101030002FA8099902F030FD8DF829608DF828401D
:101040000DF1CD000A9902F027FD8DF82C408DF8A6
:101050002D400DF1DE000B9902F01EFD0A4E8DF8B9
:1010600030400DF1EF008DF831500C9902F014FD75
:101070003B460C220DA9304602F01CFD304602F022
:10108000FDFE41B0F0BD00BF309E002408B52D4BE1
:101090002D481B7853B301F00BF82C4801F00EF8E3
:1010A0002B4801F005F82B4801F008F82A4800F019
:1010B000FFFF2A4801F002F8294800F0F9FF29480B
:1010C00000F0FCFF284800F0F3FF284800F0F6FF8E
:1010D000274800F0EDFF274800F0F0FF264800F019
:1010E000E7FF2648BDE8084000F0E8BF00F0E6FF53
:1010F000164800F0DDFF164800F0E0FF154800F04C
:10110000D7FF154800F0DAFF144800F0D1FF14486B
:1011100000F0D4FF134800F0CBFF134800F0CEFFDF
:10112000124800F0C5FF124800F0C8FF114800F057
:10113000BFFF114800F0C2FF1048BDE8084000F0B2
:10114000B7BF00BF0C000024C82F012408300124C1
:10115000B89D0024009E0024E89D0024D09D00241A
:10116000742F012464060024A42F0124AC0600245B
:101170008C2F01247C060024C4060024940600243D
:1011800010B5174C2DED028B9FED168A82B02046CC
:1011900000F098FFF0EE487A9FED137A1348E0EEE6
:1011A000077A87FE880A80FE470A8DED010A12F051
:1011B0007FFE9DED010A0E4812F07AFE204600F0F7
:1011C00081FFF7EE007A0B4B30EE080A80FE080A2A
:1011D00080FE670A83ED010A02B0BDEC028B10BDF0
:1011E000E89D0024000000009A99593F209D0024AA
:1011F0006C9D0024DC06002410B52A482DED048BDC
:1012000000F060FF9FED287ADFED286AF0EE477A64
:10121000DFED270A2748E0EE267AB1EE000AC7FE86
:10122000877A87FEC00A12F073FA234800F04AFF5B
:10123000B5EEC00AF1EE10FA30D9F7EE007AB4EE4E
:10124000670AF1EE10FA37FE800A9FED178AF1EE79
:10125000008A184C194884ED000A00F033FFB0EE04
:10126000487A9FED129A2046A0EE097A87FE080A76
:1012700080FE680A12F0A2FA104800F023FFF0EE98
:10128000487A2046E0EE097A87FE880A80FE680ADE
:10129000BDEC048BBDE8104012F0B8BA9FED080A0F
:1012A000D3E700BF742F01240AD7A33B14AE7F40BD
:1012B00000000000442F0124A42F01248C2F0124BE
:1012C0000AD723BC10B52A482DED048B00F0FAFE96
:1012D0009FED287ADFED286AF0EE477ADFED270AE6
:1012E0002748E0EE267AB1EE000AC7FE877A87FE2D
:1012F000C00A12F00DFA234800F0E4FEB5EEC00A71
:10130000F1EE10FA30D9F7EE007AB4EE670AF1EE9A
:1013100010FA37FE800A9FED178AF1EE008A184C0A
:10132000194884ED000A00F0CDFEB0EE487A9FED3A
:10133000129A2046A0EE097A87FE080A80FE680A03
:1013400012F03CFA104800F0BDFEF0EE487A20465C
:10135000E0EE097A87FE880A80FE680ABDEC048BFD
:10136000BDE8104012F052BA9FED080AD3E700BF63
:10137000640600240AD7A33B14AE7F40000000009F
:1013800034060024AC0600247C0600240AD723BCC3
:101390002DE9F04100F51044C8B0054694F8AC3092
:1013A0001942037918D0032B1CD00022027194F843
:1013B000B0300B40C36094F8AD300B401B09092BD3
:1013C000037206D80120072B287184F8A43000F09E
:1013D000E88048B0BDE8F081032BFAD8DFE803F0DD
:1013E0008D115802F72900F0C38095F9922095F8E5
:1013F0009230002AEDDBEA180133917485F89230BF
:10140000E7E794F8AE8001EA080885F8108094F8C0
:10141000A4703B1F012B06D995F8933003F0FD0310
:10142000012B40F0BB8000236E46902205F108019D
:1014300030462B7113F064FDD4F89830D4F89C201A
:10144000013B9B1ADBB2002BF6D0902231460DEB0C
:10145000020013F055FDD4F89C6024A9902206EBFD
:10146000C600013605EB0010F6B2983013F048FDC7
:10147000C4F89C60B8F1770FABD9032FA9D1092329
:10148000A8F178012B7284F8A43085F89510A0E7B4
:1014900094F8AE301940697494F8A430012B02D14D
:1014A000002900F08C806E46902205F1080130463C
:1014B00013F026FDD4F89830D4F89C20013B9B1AF9
:1014C000DBB2002BF6D0902231460DEB020013F078
:1014D00017FDD4F89C6024A9902206EBC6000136C3
:1014E00005EB0010F6B2983013F00AFD0023C4F8A3
:1014F0009C602B7148B0BDE8F08194F8A4302B7249
:10150000043B94F8AE20012B01EA0201297405D9AD
:1015100095F8933003F0FD03012B3CD100236E4678
:10152000902205F1080130462B7113F0E9FCD4F844
:101530009830D4F89C20013B9B1ADBB2002BF6D0EC
:10154000902231460DEB020013F0DAFCD4F89C60D7
:1015500024A9902206EBC600013605EB0010F6B276
:10156000983013F0CDFCC4F89C6048B0BDE8F08121
:1015700000236E46902205F1080130462B7113F0CE
:10158000BFFCD4F89830D4F89C20013B9B1ADBB206
:10159000002BF6D0D4E702232B711AE702232B711C
:1015A00068E711F00800EA6036D101F0070385F81A
:1015B00093303BB9032285F892302A7109E7002362
:1015C0002B7270E74B077FF504AF6E4628719022AF
:1015D00005F10801304613F093FCD4F89830D4F8A4
:1015E0009C20013B9B1ADBB2002BF6D090223146A7
:1015F0000DEB020013F084FCD4F89C6024A9902227
:1016000006EBC60005EB0010983013F079FC731C54
:10161000DBB2C4F89C30DCE608236E462B72304601
:1016200084F8A43094F8B2302A719022194085F8D9
:10163000941005F1080113F063FCD4F89830D4F845
:101640009C20013B9B1ADBB2002BF6D0CEE700BFFB
:10165000F8B503F083FF2D4C054607E0C4F8A05011
:1016600002F0D0F901462A48FFF792FE294802F01D
:10167000BFF903462748002BF0D1264802F0D6F9DF
:101680000346002838D0D4F89C30D4F898209B1A10
:10169000DBB24BB31E4901F19800D4F89C30D4F86A
:1016A00098209B1ADBB2002BF7D0D4F898204FF08B
:1016B000000C194E02EBC20301321B01D2B2C55C11
:1016C0000B44C4F89820012D93F8A02093F8A13082
:1016D0000BD00DB986F800C0D4F89C30D4F898200F
:1016E0009B1ADBB2002BD8D1F8BD0C4FB646002BAD
:1016F000F0D035703A60EFE7054906480B7102F00B
:1017000099F9044802F070F9BDE700BF7C2E01246E
:101710007C9E0024242F01241C9D0024080000240A
:101720002DE9F04FDFF85C82002173482DED048B2A
:1017300085B000F06DFD98F80040002C40F0F1817C
:101740006E4D21466E4805F5104686F8A54002F01C
:1017500023F90A23C6F89C402C71C6F898402B72D6
:101760009FED688A012168480024B0EE480ADFED49
:10177000678A00F03DFCB0EE480A0021644800F0A2
:1017800037FCB6EE000A0121624800F031FCB0EEF1
:10179000480A0021604800F02BFCB0EE480A012105
:1017A0005E4800F025FCB0EE480A00215C4800F0DD
:1017B0001FFCB0EE480A01215A4800F019FCB0EEB7
:1017C000480A0021584800F013FCB7EE000A012136
:1017D000564800F00DFCB7EE000A0021544800F016
:1017E00007FC9FED540A0121534800F001FC9FEDD6
:1017F000510A0021514800F0FBFBB6EE000A01211E
:101800004F4800F0F5FB0021B6EE000A4D4800F00D
:10181000EFFBB0EE680A4C48264600F0CDFA4B4F7D
:101820004B4B9FED4C9A38463B614FF07C53B0EEEA
:10183000490AC7ED038A7B6087ED058A87ED029A26
:1018400012F078FD40F20113434887ED060ABB848D
:101850003C7012F05BF8B0EE680A404812F03CFAB7
:10186000B0EE480A3D4812F069FBB0EE680A3C4809
:1018700012F032FAB0EE480A394812F05FFB214606
:101880004FF41642374813F049FB4FF416523549CE
:10189000B0EE680A344812F07BF9B0EE000A324824
:1018A00012F0FEF9B0EE680A0121304811F0C0FED6
:1018B000B0EE680A01212E4811F0BAFE2D4CFFF758
:1018C00063FB0E2000F002FCADF80C00B0EE490AFC
:1018D0002948039901F008FF0321074800F010FC94
:1018E00026490548264D00F007FCDFF89C90DFF8FC
:1018F0009CB0DFF89CA0FBE0189E00247C9E002496
:10190000242F012400000000C82F012400803B4741
:1019100008300124B89D0024009E0024E89D002486
:10192000D09D0024742F012464060024A42F0124D8
:10193000AC060024CDCC4C3E8C2F01247C06002428
:10194000C40600249406002420300124E02F012442
:101950003EC3AE370000C842089D0024209D0024ED
:101960006C9D002404070024DC060024442F01247D
:1019700034060024302F0124342F0124690A000882
:101980000C000024049D0024040000241000002406
:10199000189D00243023684A1360B0EE000A12F04C
:1019A000DFFEDFED667A664820EE270A84ED000A46
:1019B00001F0B4FE624B99F800209B7AFF3B18BF00
:1019C000012393422B7002D0FFF760FB2A7889F83D
:1019D0000020FFF7C5F994ED000A5A4800F064FAB8
:1019E000594B584893ED000A00F0B4FADBF8003088
:1019F00094ED007A0133554807EE903AF8EEE77A15
:101A000087EE270A87ED020A12F094FCF5EE007AC1
:101A100087ED060A9AED006ADFED4D6AB0EE670ABF
:101A20009FED4C7A4C48A6EE260A80FE270A80FEDF
:101A3000470A12F001F8FFF7A3FBFFF7DDFBFFF702
:101A400041FCFFF75DFA2978444881F0010100F07C
:101A500073FB98F80030002B47D00136B6F5FA7FBB
:101A60009FED338B41DB3E4B00263E48D3ED007AA1
:101A7000B0EEE76AF5EEC07AFDEEC67AF1EE10FA46
:101A8000B8EEE77A17EE902A4CBF2D21202136EED2
:101A9000476AB7EEC66A26EE086BBDEEC67B17EE48
:101AA000103A01F087FD304801F084FD2F4B2D489E
:101AB000D3ED007AB0EEE77AF5EEC07AFDEEC76AB4
:101AC000F1EE10FAF8EEE67A16EE902A4CBF2D21D0
:101AD000202137EE677AB7EEC77A27EE087BFDEE56
:101AE000C77B17EE903A01F0BBFD012003F038FDF3
:101AF00098F80030FFEE0C0A002B7FF44BAFFFF795
:101B0000A7FD0D4BDFED1A6AB2EE087A1B6807EEEF
:101B1000903A0193F8EEE77A77EEE67AC7EE870A15
:101B20003BE7002001F0AAFD1AE600BFAFF30080FA
:101B30000000000000408F40080000240000DC434B
:101B4000342F012420300124BC2F0124E02F012454
:101B50006666263F6666663F089D0024189E002440
:101B6000C42F012494650108A0650108C02F012439
:101B700000008A422DE9F04169480025694E0024A1
:101B80006949324605604561056212F0DFFB67482E
:101B90004FF60F02664900F510430560654FA3F844
:101BA000B0200722C3F8AC10C3F8A85083F8B220C5
:101BB0003246614912F0CAFB32466049604812F071
:101BC000C5FB604A604B3846158095705460946040
:101BD000D46014611D805D4A9D705C609C60DC6017
:101BE0001C615B4B1580957054609460D4601461E7
:101BF0001D80584A9D705C609C60DC601C61564B87
:101C00001580957054609460D46014611D80534AAF
:101C10009D705C609C60DC601C61514B1580957010
:101C200054609460D46014611D804E4A9D705C6065
:101C30009C60DC601C614C4B158095705460946016
:101C4000D46014611D80494A9D705C609C60DC60BA
:101C50001C61474B1580957054609460D46014618A
:101C6000444A1D809D705C609C60DC601C61424B3E
:101C7000DFF840811D809D705C609C60DC601C61B1
:101C80001580957054609460D4601461FFF73AF841
:101C900032463846394912F059FB394F32464146EF
:101CA000384812F053FB32464146374812F04EFB9B
:101CB00032463946354812F049FB324639463448F7
:101CC00012F044FB32463349334812F03FFB3246B0
:101CD0003249334812F03AFB324F334832463349E7
:101CE000046044608760C460076147618761C461C4
:101CF00004624462858512F029FB2D4832462B4947
:101D00008585046044608760C460076147618761BE
:101D1000C46104624462BDE8F04112F017BB00BF29
:101D2000189E002400000024490A00087C9E00241C
:101D300080707FF020300124650A0008450A000801
:101D4000342F0124C82F012408300124B89D002419
:101D5000009E0024E89D0024D09D0024742F0124BF
:101D600064060024A42F0124AC0600248C2F012437
:101D70007C060024C406002494060024610A00089E
:101D8000550A0008E02F0124549E0024209D0024C1
:101D90006C9D00245D0A0008DC060024590A000836
:101DA000089D0024000080BF442F01244D0A000834
:101DB00034060024510A0008F8B52A4BF0EE407AA8
:101DC000064600F1EC0400F1100700F5017580ED06
:101DD000000A436001E0D6ED007AF7EE006A4FF0AA
:101DE0007C5200239FED200AC4ED037A204686EE44
:101DF000A77A62606361283404ED080A04ED067A6C
:101E000012F098FA0123062204ED040A04F8033CB8
:101E100004F8043C04F8282C13F06CF9134ADFEDA5
:101E2000146AAC4282FB00324FEAE073C3EB62708B
:101E300007EE900AF8EEE77AE7EC017A14ED057AFE
:101E4000A7EEA67A04ED057AC5D1204696ED000AE4
:101E500011F052FE73682046C6F81032BDE8F84013
:101E600011F066BE00005C430000C8420100004063
:101E7000DB0FC94030B5002383B000F1EC0400F55E
:101E8000017501932046283412F072F8DDED017AD5
:101E9000AC4237EE800A8DED010AF3D101A920464C
:101EA00011F036FE03B030BD80ED010A704700BF6F
:101EB000B3EE017A0123F7EE006A024600F1480111
:101EC00080ED020A60EE077A00B5FDEEE77AB8EE23
:101ED000E76A17EE90CAC0ED887A4FEA8C0E76EE6C
:101EE000266AC6EE077A86EE876A70EE676A86EE25
:101EF000277A86EE876A12E0DCED2A7A072BDCED82
:101F00002B6A91ED007A76EEE76AE6EE867A67EE66
:101F1000277AC2ED3C7A19D0013328320431042BE0
:101F200000EB0E0CE8D1DFED0A5AB7EE007AD0EDE7
:101F3000156AF0EE657AE6EE807AC7FEA57AC7FEEE
:101F4000E67A77EE677AC2ED3C7AE5E75DF804FB66
:101F500000000000F3EE017AF8B560EE277A05463E
:101F600000F12C0600F1EC0400F14807FDEEE77AE1
:101F70002DED028B17EE903AB0EE408A80ED030A09
:101F8000C0ED877A01E0D5F81C3207EE903AB7EE43
:101F9000006AB3EE015A05EB8303F8EEE76AB6EC8C
:101FA000017AD3ED197A204695ED010A283436EEF0
:101FB000866AC6EE855AD3ED1A6A86EE054A76EE33
:101FC000E76A78EE654A84EE255A84EE856AE6EE85
:101FD000867A67EE277AA0EE270A04ED080A12F047
:101FE000A9F9B74204ED040ACDD1BDEC028BF8BDCE
:101FF000417080ED040A80ED030A80ED020A80ED55
:10200000010A704700000000437880ED050A93B193
:1020100083789BB1D0ED027A9FED237A37EEC00A28
:10202000B0EEC00AB4EEC70AF1EE10FA03D90022EE
:102030000123827003704368C3607047037823B341
:1020400090ED047AB4EEC07AB7EEC77AF1EE10FAEA
:102050009FED136B4CBF37EE067B37EE467BDFED13
:10206000136AB7EEC77B77EE407AF0EEE77AF4EECC
:10207000E67AF1EE10FA0DD8002380ED040A80ED27
:10208000010A80ED030A0370704780ED010A80EDBC
:10209000030A704780ED047A80ED037A704700BF31
:1020A000FCA9F1D24D62603F0AD7233C6F12033B7B
:1020B000012342698370437082607047002343703C
:1020C000704700BF90ED030A704700BF1F2882B021
:1020D00009D8084B03EB400213F81030507843EA5C
:1020E000002002B0704701230C2043EA002002B018
:1020F000704700BFA4650108143001F0DFB900BFCC
:1021000038B500F1140504462DED028B284601F088
:1021100091F9284601F08AF92846B0EE408A01F08C
:1021200081F9D0ED007AF8EE677A88EE277ABDEC77
:10213000028B84ED0E7A38BD253002F0A7B800BFBF
:10214000F0B5032399B000270125129306462C4BC6
:1021500009A81595CDE90E7340F20453ADF840304F
:10216000284BCDE91357099301F0A6FF09A802F007
:102170007FF8002836D1244B04AF04460090CDF8F8
:1021800042301023394604958DF820301F4BCDE99D
:102190001650CDE906506846059302F0F7F908237A
:1021A000009A01A909A8ADF804508DF806400994D9
:1021B0000295039300F0E4F800230EA9384630247A
:1021C000049302F0ADFF03224FF07E5309A906F1FC
:1021D00014000B930C93CDE90942049A01F0EAF83C
:1021E00019B0F0BD40F60132074B169704AFADF8B9
:1021F00024200998CDF84230179500F081F8DBE7EC
:102200000402040403030001040604030704010B91
:102210002DE9F04304462DED028B83B0002948D010
:10222000012140F2011200230091ADF804208DF845
:102230000630304A0126304B271D304904F1290869
:10224000626040F20272A36040F60663E16004F14E
:1022500025092682A4F8252084F82760A4F82930CF
:1022600084F82B6003F0EAFA6946054648B304F1A6
:1022700030008DF8066003F03FFA072D34D104F1E9
:1022800014052046FFF75CFF284601F0CFF82846EA
:10229000B0EE408A01F0C6F8D0ED007AF8EE677A29
:1022A00088EE277A84ED0E7A03B0BDEC028BBDE890
:1022B000F08340F2011300918DF80610ADF8043060
:1022C000B7E704F1300003F017FA3946204602F070
:1022D000A7FB484601F0F0FE404601F0EDFE04F198
:1022E000120000F077F9CAE73946204602F098FB61
:1022F000C5E700BF0508050905070506050A060626
:1023000010B584B003460124ADF8040003A8ADF86D
:102310000C30ADF80E4001F0CFFE214603A801F0CD
:10232000B5FF204603F01CF9002103A801F0AEFF21
:10233000204603F015F9214603A801F0A7FF04B0D9
:1023400010BD00BF10B5C2F3002384B00C46017C61
:102350008DF80D2043EA4402FA2402238DF80C2064
:1023600003AA009402F0A8F918B10124204604B091
:1023700010BD04460A2003F0F3F8204604B010BD57
:10238000034670B543F8042B044684B007C983E8BC
:102390000700A37983B91A210B461E22FA2523745C
:1023A0002046ADF80C20022303AA009502F084F920
:1023B00028B1012004B070BD1B210B46EDE70A20B7
:1023C00003F0CEF84FF4B85200950223ADF80C207C
:1023D000204603AA217C02F06FF90028E9D10A20E7
:1023E00003F0BEF841F2027200950223ADF80C2012
:1023F000204603AA217C02F05FF90028D9D10A20E7
:1024000003F0AEF8042200950223ADF80C2020461C
:1024100003AA217C02F050F90028CAD10A2003F057
:102420009FF8062200950223ADF80C20204603AA4F
:10243000217C02F041F90028BBD10A2003F090F87A
:1024400041F2082200950223ADF80C20204603AA91
:10245000217C02F031F90028ABD10A20064603F0B6
:102460007FF80095022303AA217C2046ADF80C607A
:1024700002F022F900289CD1304603F071F8009553
:1024800022790C232046002A8DF80C3003AA4FF045
:10249000020314BF622142218DF80D10217C02F04D
:1024A0000BF9002885D1304603F05AF82279D4E997
:1024B00002310B43DBB20AB943F0400362790AB13F
:1024C00043F020030E22FA258DF80D3020460095AA
:1024D00002238DF80C2003AA217C02F0EDF80028DD
:1024E0007FF467AF0A2003F03BF810220095022327
:1024F000ADF80C20204603AA217C02F0DDF800286C
:102500007FF457AF0A2003F02BF812210095022325
:10251000ADF80C1003AA217C204602F0CDF800286B
:102520007FF447AF0A2003F01BF80122092120465F
:10253000FFF708FF003818BF01203BE7F0B5102374
:1025400087B0234C012200250126002702A920463E
:102550000195CDE902234FF48052CDE904670AF0DA
:1025600009FC642003F0B4FF02A94FF48052204616
:10257000CDE9046702261027CDE902670AF0FAFBCD
:102580000322102302A92046CDE9022300230422BE
:10259000CDE904234FF480520AF0ECFB40F23223E1
:1025A000042202A9019310232046CDE90223019AB7
:1025B000012305924FF4805204930AF0DBFB40F6AE
:1025C000060120460AF0F6FB284607B0F0BD00BF22
:1025D0004C3201241C4B00221C494FF0400C30B5FA
:1025E000054689B00220596007219A601A620124C9
:1025F000DA620A224FF4006EDC6006922022CDE9F6
:10260000000104200821CDE9020103201021CDE9B9
:10261000040108206946C3E904024FF4C072181D82
:10262000C3E906C24FF48052C3E909E20AF078FB1D
:1026300038B92846FFF782FF003818BF012009B0DB
:1026400030BD204609B030BD48320124404100521F
:10265000614A0021D0B513688EB00A91002B40F07A
:10266000B9805E4B01214FF683700C24116002216A
:10267000D3F8D4200026032742F48052C3F8D42094
:10268000D3F8D42002F480520092009AD3F8E020CC
:1026900042F01002C3F8E020D3F8E02002F010026C
:1026A0000192019AD3F8E02042F04002C3F8E02002
:1026B000D3F8E02002F040020292029AD3F8E02020
:1026C00042F00802C3F8E020D3F8E02002F008024C
:1026D0000392039AD3F8E02042F48072C3F8E0201A
:1026E000D3F8E02002F480720492049AD3F8E02038
:1026F00042F08002C3F8E020D3F8E02002F080022C
:102700000592059AD3F8E02042F02002C3F8E020B9
:10271000D3F8E02002F020020692069AD3F8E020D7
:1027200042F00402C3F8E020D3F8E0300C9403F048
:10273000040307930323079A0B93CDE9080108A923
:10274000274805F04BFD48F23712022308A9254817
:102750000C94CDE90823CDE90A6705F03FFD4CF262
:102760000372022308A920480C94CDE90823CDE97F
:102770000A6705F033FD40F2FF62022308A91B48F7
:102780000C94CDE90823CDE90A6705F027FD4FF643
:102790000C72022308A916480C94CDE90823CDE950
:1027A0000A6705F01BFD4FF63F02022308A91148F6
:1027B0000C94CDE90823CDE90A6705F00FFD20222E
:1027C000022308A90A480C94CDE90A67CDE9082339
:1027D00005F004FD0EB0D0BD44320124004402587F
:1027E0000010025800180258000C0258002002582D
:1027F000001C0258001402582DE9F04FDFF8108435
:1028000006460D46144608F118002DED028B89B0DE
:1028100000AF02F07DFDD8F8183073B3D8F81C3043
:10282000D8F80490002B43690BBF4FF0080A4FF013
:10283000100A4FF0020B4FF0040BB9F1000F2AD031
:10284000A200EA46012B02F1070222F00702ADEBDB
:10285000020D6846ADEB020D694600F03F81022B88
:1028600000F0D680002B6FD02246C847D5462437CB
:10287000BD46BDEC028BBDE8F08FD8F81C30002BB4
:10288000F5D0D8F804904FF0080A4FF0020B4369D6
:10289000B9F1000FD4D1FB61D8F80030BB61002B37
:1028A000E5D0D54802F0A6FD6B46BBF1020F78617A
:1028B00008EE103AFB6900F083816A465146A2EBAC
:1028C000C40295466200EA46B2FBFBF2AAEBC400E2
:1028D00085460AEB8200EE46F861ADEB010DF86922
:1028E0000EEB820CC7F810C0EC46ADEB010D00EB0F
:1028F0008201CCF80400CCF8081001EB82013869A1
:10290000E946CCF80C1000EB8201CCF800A001EBFA
:102910008202C9E900E0C9E90212012B00F06483D8
:10292000022B00F06C82002B00F080816208494687
:102930006046BB69984718EE103A24379D46BD465D
:10294000BDEC028BBDE8F08F002C8DD01A46D8ED7F
:102950000C6A9FEDB27A8446331D36F922E00CF101
:10296000080C07EE90EA33F922E00232F8EEE77A3B
:10297000944267EE877A67EEA67A4CED027A07EE0C
:1029800090EAF8EEE77A67EE877A67EEA67A4CED82
:10299000017AE2D8F9612246C847984ED8ED0D6A0F
:1029A0000020F9692B1D9FED9E7A9FED9E6ADFED59
:1029B0009E5A22E0F4EEC67AF1EE10FAC0F2C88414
:1029C00047F6FE72D1ED017A45F8202066EEA77A2F
:1029D000F4EEC77AF1EE10FA40F2F080F4EEC67A27
:1029E000F1EE10FAC0F2D58447F6FE7243F82020CB
:1029F0000230083184427FF639AFD1ED007A66EEBD
:102A0000A77AF4EEC77AF1EE10FAD3D83246D9E7B6
:102A1000002C3FF429AFD8ED0C6A84469FED787AFC
:102A20000022331D8E4656F822100CF1080C07EEDA
:102A3000901A53F822100232F8EEE77A944267EEC9
:102A4000877A67EEA67A4CED027A07EE901AF8EED6
:102A5000E77A67EE877A67EEA67A4CED017AE2D8DC
:102A600071462246C7F81CE0C847664ED8ED0D6A8D
:102A70000020F9692B1D9FED6A7A9FED6A6ADFF8E5
:102A800094C120E0F4EEC67AF1EE10FAC0F2798437
:102A90003246D1ED017A45F8202066EEA77AF4EEB1
:102AA000C77AF1EE10FA40F28780F4EEC67AF1EEC2
:102AB00010FAC0F25E84324643F82020023008311A
:102AC00084427FF6D3AED1ED007A66EEA77AF4EEBB
:102AD000C77AF1EE10FAD5D86246DAE7002C3FF457
:102AE000C3AED8ED0C6A86469FED477A4FF0000CD6
:102AF000331D56F82C200EF1080E82F40002A2F5C8
:102B0000000207EE902A53F82C200CF1020CF8EE8C
:102B1000E77A82F400026445A2F5000267EE877A44
:102B200067EEA67A4EED027A07EE902AF8EEE77A83
:102B300067EE877A67EEA67A4EED017AD9D8F96109
:102B40002246C847314ED8ED0D6A0020F9692B1D89
:102B50009FED337A9FED336ADFF8BCC01FE0F4EEDF
:102B6000C67AF1EE10FAC0F2FC833246D1ED017A5A
:102B700045F8202066EEA77AF4EEC77AF1EE10FA57
:102B800018D9F4EEC67AF1EE10FAC0F2DA833246C2
:102B900043F820200230083184427FF667AED1ED41
:102BA000007A66EEA77AF4EEC77AF1EE10FAD6D87C
:102BB0006246DBE76246EBE762467DE7324615E7B1
:102BC000A100D6466208073121F00701ADEB010DE7
:102BD000EA46ADEB010D6946ADEB0E0D0AEB820046
:102BE000EC46ADEB0E0D01EB8202F861E946CCE953
:102BF00000A0C9E9001290E69C3201240280FFFF88
:102C0000000000300082FF7F0000003482FF7F0060
:102C100080320124007E00807E0080FF00000038AA
:102C200004FF7FBF04FF7F3F00FEFF46002C00F043
:102C3000C982BBF1020FD8F8242000F0FA8279692A
:102C4000C7F8049002EB810E5FED0C5A8A00DCF8A5
:102C500008100EF104007A611A46DCF80C303B6172
:102C6000331DD7F810903D61FD69C7E902CB8C4652
:102C7000834636F92210D8ED0C7A06EE101A33F995
:102C8000221006EE901A3EF92210B8EEC66A07EE40
:102C9000101AF8EEE66A3BF92210B8EEC77A26EE73
:102CA000256A66EEA56A27EE257A26EE276A66EE85
:102CB000A76A27EE277A07EE901A51080232F8EE3B
:102CC000E77A0AEB8100944280ED006A05EB81000F
:102CD00067EEA57AC0ED006A0CEB810009EB81017B
:102CE00080ED007A98ED0C7A67EE877AC1ED007A74
:102CF000BFD8D7F804903D69D7E902CB6046620897
:102D0000BB6949469847D8F82C307A69D8ED0D6AE6
:102D10001A441FED3D7A1FED3D6A2B1D904602F1CE
:102D2000040A5FED3F5A0022A84ED9E900EC51E0B9
:102D3000F4EEC67AF1EE10FAC0F2C78247F6FE70E2
:102D400045F822000CEB0100D0ED007A66EEA77A80
:102D5000F4EEC77AF1EE10FA4BD9F4EEC67AF1EE42
:102D600010FAC0F2BA8247F6FE70BBF1020F43F8C8
:102D700022002BD0D9F808000844D0ED007A66EE86
:102D8000A77AF4EEC77AF1EE10FA36D9F4EEC67AE5
:102D9000F1EE10FAC0F2CD8247F6FE7048F822003C
:102DA000D9F80C000144D1ED007A66EEA77AF4EE72
:102DB000C77AF1EE10FA1ED9F4EEC67AF1EE10FAE7
:102DC000C0F2AF8247F6FE714AF8221002329442F6
:102DD0007FF6B1AD51080EEB81008900D0ED007A8D
:102DE00066EEA77AF4EEC77AF1EE10FAA0D8304674
:102DF000A6E73046B9E73146E6E73046CEE7002C95
:102E000000F0E081BBF1020FD8F8243000F0E1813E
:102E10007A69DCF8081003EB820EC7F8049093007F
:102E2000DFED6B5A0EF1040000227B61DCF80C3000
:102E30003B61331DD7F810903D61FD69C7E902CBB6
:102E40008C46834656F82210D8ED0C7A07EE101AFD
:102E500053F82210B8EEC76A07EE101A5EF8221077
:102E6000F8EEC76A07EE101A26EE256A5BF8221004
:102E7000B8EEC77A66EEA56A26EE276A27EE257AAF
:102E800066EEA76A27EE277A07EE901A51080232FB
:102E9000F8EEE77A0AEB8100944280ED006A05EBD8
:102EA000810067EEA57AC0ED006A0CEB810009EBAA
:102EB000810180ED007A98ED0C7A67EE877AC1ED9A
:102EC000007ABFD8D7F804903D69D7E902CB6046B5
:102ED0006208BB6949469847D8F82C307A69D8ED22
:102EE0000D6A1A449FED3E7A9FED3E6A131D92468D
:102EF000DFF8E4C00022FB612B1D364ED9E9008EBD
:102F00004EE0F4EEC67AF1EE10FAC0F2FC813046E3
:102F100045F822000EEB0100D0ED007A66EEA77AAC
:102F2000F4EEC77AF1EE10FA49D9F4EEC67AF1EE72
:102F300010FAC0F2EF813046BBF1020F43F82200D5
:102F40002AD0D9F808000844D0ED007A66EEA77AB6
:102F5000F4EEC77AF1EE10FA35D9F4EEC67AF1EE56
:102F600010FAC0F2C98130464AF82200D9F80C00A4
:102F70000144D1ED007A66EEA77AF4EEC77AF1EE5D
:102F800010FA1ED9F4EEC67AF1EE10FAC0F2AD8155
:102F90003146F86940F82210023294427FF6CBACF9
:102FA000510808EB81008900D0ED007A66EEA77A1F
:102FB000F4EEC77AF1EE10FAA3D86046A8E76046AF
:102FC000BAE76146E5E76046CEE700BF0280FFFF53
:102FD000000000300082FF7F007E0080000000348F
:102FE00004FF7FBF04FF7F3F002C00F0EB807A6975
:102FF0000021D8F82430C7F8109003EB820ED7F8E0
:103000001C909300FD610EF104021FED0C6A7B61C0
:10301000331D154656F821204808D8ED0C6ABBF13F
:10302000020F82F40002A2F5000207EE902A53F884
:10303000212082F40002B8EEE77AA2F5000227EE22
:10304000067A07EE902A0AEB8002F8EEE77A27EE7E
:10305000267A67EE867A82ED007A09EB80024FEAE3
:10306000800067EEA67AC2ED007A27D05EF82120B4
:1030700082F40002A2F5000207EE902A55F8212002
:1030800082F40002B8EEE77AA2F5000227EE067A93
:1030900007EE902ADCF80820F8EEE77A024427EEE3
:1030A000267A67EE867A82ED007A98ED0C7ADCF863
:1030B0000C2067EE877A0244C2ED007A02318C421E
:1030C000A8D8D7F8109060466208BB694946FD69E8
:1030D0009847D8F82C307A69D8ED0D6A1A441FED5C
:1030E000407A1FED406A131D9246DFF8C4C20022E9
:1030F000FB612B1DAB4ED9E9008E4EE0F4EEC67A93
:10310000F1EE10FAC0F2C580304645F822000EEB11
:103110000100D0ED007A66EEA77AF4EEC77AF1EE00
:1031200010FA49D9F4EEC67AF1EE10FAC0F2BF8077
:103130003046BBF1020F43F822002AD0D9F808002C
:103140000844D0ED007A66EEA77AF4EEC77AF1EE85
:1031500010FA35D9F4EEC67AF1EE10FAC0F2AE806C
:1031600030464AF82200D9F80C000144D1ED007A2B
:1031700066EEA77AF4EEC77AF1EE10FA1ED9F4EEF5
:10318000C67AF1EE10FAC0F28B803146F86940F849
:103190002210023294427FF6CEAB510808EB810038
:1031A0008900D0ED007A66EEA77AF4EEC77AF1EEE8
:1031B00010FAA3D86046A8E76046BAE76146E5E79B
:1031C0006046CEE7224649466046BB699847FFF70E
:1031D000B2BBC7F810B0002298ED0C6A331DDFEDCA
:1031E000726AD7F81CB0786956F8221007EE901A68
:1031F00053F82210B8EEE77A07EE901A510802321F
:10320000F8EEE77A27EE267A0AEB810E94420BEB72
:10321000810167EEA67A27EE067A67EE867A8EED52
:10322000007AC1ED007ADFD88300D7F810B07B6157
:103230004DE61A46C7F810B098ED0C6A331DDFED65
:103240005B6AD7F81CB0786936F9221007EE101ABD
:1032500033F9221007EE901AB8EEC77A51080232FD
:10326000F8EEE77A27EE267A0AEB810E94420BEB12
:10327000810167EEA67A27EE067A67EE867A8EEDF2
:10328000007AC1ED007ADFD88300D7F810B07B61F7
:1032900034E5F0EE675AFEEEE45A15EE900A34E794
:1032A000F0EE675AFEEEE45A15EE901A6EE7F0EE75
:1032B000675AFEEEE45A15EE900A3AE7F0EE675AC6
:1032C000FEEEE45A15EE900A4BE767EEA57AFDEEA6
:1032D000E77A17EE900A00B232E567EEA57AFDEEC6
:1032E000E77A17EE900A00B23FE5F0EE675AFEEE7D
:1032F000E05A15EE901A4CE6F0EE675AFEEEE05AF0
:1033000015EE900A30E6F0EE675AFEEEE05A15EE42
:10331000900AFDE5F0EE675AFEEEE05A15EE900ACF
:103320000AE667EEA57AFDEEE77A17EE901A09B283
:103330004AE567EEA57AFDEEE77A17EE900A00B24D
:103340002CE5F0EE675AFEEEE45A15EE902A1FE4E3
:1033500067EEA57AFDEEE77A17EE902A12B2FFF734
:1033600031BBF0EE675AFEEEE45A15EE902AFFF7F5
:10337000FDBBF0EE675AFEEEE05A15EE902AFFF71D
:103380009BBBF0EE675AFEEEE05A15EE902AFFF76F
:1033900080BB67EEA57AFDEEE77A17EE902A12B2AF
:1033A000FFF724BB82FF7F000000003000000038E0
:1033B0007E0080FF30B5184C154685B0046004F1DE
:1033C000080EEC460FC98EE80F00D4ED047AF5EE36
:1033D000C07A8CE80F00F1EE10FA1ADDB7EE006A41
:1033E00094ED057A27EE277AC6EE276A84ED0D7AEA
:1033F000C4ED0C6A6DB1204640F8185F01F088FFFB
:10340000064903690020064A2162A262E36005B012
:1034100030BD012005B030BD8032012400200030D5
:103420000000003000680830704700BF00681830A6
:1034300001F0CEBF70B504688AB0A369E160CBB17A
:1034400004F11805284601F063FF8446EE46E6685D
:10345000BCE80F00AEE80F00BCE80F00AEE80F00BC
:103460009CE803008EE8030069462846049601F0B4
:1034700057FEF8B9E069D8B104F11C05284601F0FF
:1034800047FF8446EE46E468BCE80F00AEE80F0054
:10349000BCE80F00AEE80F009CE803008EE80300D4
:1034A00069462846049401F03BFE003818BF01200D
:1034B0000AB070BD01200AB070BD00BF30B504680D
:1034C00083B00D46E3694BB1A3680020E26A616AEC
:1034D0009B00009004F11C0001F01CFFA36807484A
:1034E000A26A9B00216A009004F1180001F012FF0B
:1034F0000020C4E9005003B030BD00BFF927000828
:1035000010B4074B4FF07E51302400220320196184
:103510009C60D8605DF8044B5961C3E9062270478E
:1035200080320124704700BFF8B5134F3C687F2CF0
:1035300007D98023114A42F224411C463B60A2F87D
:103540007E100F4D2B68012B0AD90C4E0D4D2246D3
:103550003146284600F098F90028F8D13860F8BDC7
:1035600022460649074800F08FF90028F7D12B685A
:10357000386001332B60F8BDBC320124C032012415
:10358000B83201244033012410B5084C02460B46E2
:10359000074821680844C1F1800111F025FE236825
:1035A00018442060FFF7C0FF10BD00BFBC320124EB
:1035B000C03201240FB400B583B004A951F8040B44
:1035C0000191FFF7E1FF03B05DF804EB04B0704731
:1035D00030B4154C2168F1B14B1E144DE81810F8A9
:1035E00001298C4619460A2A01D00D2A02D14BB175
:1035F000013BF4E70CF102037F2B10D980232360F9
:1036000030BC70470122022323600D200A23685436
:10361000AB5430BC704701220223044DF4E70CF197
:1036200001026146F0E700BFBC320124C032012430
:1036300010B5094C02460B46084821680844C1F100
:10364000800111F0D1FD236818442060FFF7C0FF0E
:10365000FFF76AFF10BD00BFBC320124C032012455
:103660000FB400B583B004A951F8040B0191FFF722
:10367000DFFF03B05DF804EB04B0704710B50446FB
:1036800000210A4800F07AF8002C094B14BF0222EE
:10369000002208481A60FFF7E3FF0748FFF7E0FF42
:1036A0000A20BDE8104001F05BBF00BF4033012499
:1036B000B8320124E4650108F4650108064A0749A7
:1036C000074808B510F042FE034A04490548BDE822
:1036D000084010F03BBE00BF000000242535000864
:1036E000403301244433012470B5044682B0C1F351
:1036F0000726CDB2ADF8041001F030FF4FF4807210
:103700004FF001232060A01DA571A280E671A36087
:1037100002B0BDE8704000F0CFBC00BF38B5044631
:1037200001F01CFF002223682271834210D0012285
:10373000A57AE37A954020602271A01D6DB243B94D
:1037400000F096FD40B22843C0B27F28A0720AD094
:1037500038BD00F08DFDB0FA80F040092843C0B2BA
:103760007F28A072F4D101F0F9FE07EE900AF8EE7E
:10377000677AC4ED037A38BD704700BF012910B5E0
:1037800006D0022915D051B1BDE8104006F008BCA2
:103790000A46344834490AF09DFDE8B1FEE7334B50
:1037A0000A46334C334934481C600AF093FD68B133
:1037B000FEE701222C492B480AF08CFD00B1FEE700
:1037C0002E4928480AF0A8FDC0B1FEE72B492A4837
:1037D0000AF0A2FD60B1FEE7284922480AF09CFDEC
:1037E00000B1FEE726491F480AF024FD08B3FEE7B2
:1037F000244921480AF01EFDA8B1FEE720491948D6
:103800000AF018FD00B1FEE716480AF09BFD0246DB
:1038100040B9164B164C174917481C600AF05AFD60
:1038200068B1FEE7FEE714480AF08CFD0028ABD033
:10383000FEE70C480AF086FD0028A5D0FEE70F49F8
:103840000D480AF069FD00B1FEE70E490A480AF08A
:10385000F1FC00B1FEE708480AF074FD002893D09F
:10386000FEE700BFE4350124B000002480380124C5
:1038700079370008940000244833012418010024FB
:103880007400002464000024084691B208B502F0D8
:103890000FF9003818BF012008BD00BF10B50B4B51
:1038A000012A0B4C08461960216006D0022A01D07B
:1038B0003AB110BD02F012F92068BDE8104002F0E4
:1038C00013B9BDE8104002F009B900BF80380124E7
:1038D00084380124014805F041BE00BFA86B0124D3
:1038E000014805F03BBE00BFA86B0124014805F06C
:1038F00035BE00BFA86B0124704700BF254A9378EE
:1039000003B970470B68002BFBD04FF0000C70B56B
:103910006546A3EB0C04032C34D910F80C608444E6
:1039200016F00E0F06F00F042CD00F2C2AD01444E2
:1039300094F8104834B3013C0CF1010E5EFA84FE99
:10394000D2F80434D2F80844013B1B1BC3F309032B
:10395000F3B11CF8016FD2F80434D2F80844013BEB
:103960001B1BC3F30903002BF5D0D2F80834F44530
:1039700003F101041344C4F309041E71C2F808449E
:10398000DED10B680435ADB29D42AC46C1D370BDEB
:103990009370F6E78C3801244FF0010CCAB20F4B3C
:1039A000A2EB0C02B2FA82F210B552090C4C82B0B2
:1039B000046020466170114683F800C00192FFF751
:1039C000DDFE00230A20A37001F0CAFD019A204603
:1039D000044902B0BDE81040FFF760BF88380124F9
:1039E0008C380124FD380008012203689A70704762
:1039F0000368D3F80804D3F80434C01AC0F30900EC
:103A0000704700BF0268D2F80834D2F804145B1A79
:103A1000C3F30903002BF6D0D2F80434D1180133D4
:103A2000C3F309030879C2F804347047036898782F
:103A3000704700BF0368D3F80424C3F80824704714
:103A400010B5104B104C03F1100E04F5016C0FCBA8
:103A50008CE80F009EE80F0004F5026C8CE80F0064
:103A60000A484FF60F010723094AC4F830082046D8
:103A7000A4F8341884F836380649BDE8104010F030
:103A800065BC00BF406501088C38012480707FF060
:103A900000000024F938000882B04FF0000C032326
:103AA000ADF80410BDF8042080F810C002804380F7
:103AB00002B070472DE9F04FBE4E00258FB0BE4CCE
:103AC000037006F1400342600746019288462022B7
:103AD00029463046C4F85831C4F85461CDE903553D
:103AE000CDE90555CDE90755CDE90955CDE90B558A
:103AF00011F014FA2022294604F59970C4F82151D6
:103B0000C4F82551C4F82951C4F82D5111F006FA12
:103B1000019B84F8385284F820317A68002A5FD0FB
:103B20002B464146B64604F5907599464FF0010A7A
:103B300003EB0310D1F800B0D1F804800133D1F8C1
:103B400008C02218CE6844F800B0C2F80480C2F859
:103B500008C0D660087C2EF8029B10740A7C05F819
:103B6000012F002A69D07A68113184F838A29A426C
:103B7000DED84FF4802291489DF8043008214FF0A0
:103B800000084FF00009C4F874310023C4E957025B
:103B90000122C4F8643184F87031C4E95A2194F8E0
:103BA0003812C4E9608981B3C4F88821002284F8FE
:103BB000713184F878313B78C4E96322A3B30122E0
:103BC00000200121013B84F89421C4E96801082BFD
:103BD0002CD8DFE803F0ABB0B5BABFC4C9CFD6006C
:103BE0009DF804300121C4F86421C4F874314FF405
:103BF000802384F87021714AC4E9572308230022E6
:103C0000C4E95A130023C4E960230123002284F885
:103C10007131002384F878310323C4F888313B786C
:103C2000C4E96322002BCAD184F89431644803F0BC
:103C300087F8034638B1FFBEFEE77A6811319A4231
:103C40003FF676AF95E703A95D48039303F0D6F9F5
:103C50000546002868D1022240F2FF73CDE908230F
:103C600000230422CDE90A2394F82031002B00F030
:103C7000D5804FF0060921E0022B00F08980012B4E
:103C800040F0C4809AF80130012B00F0C180002B75
:103C90004C4B18BF002306A94948CDE9063902F06C
:103CA0007BFC002840F0BF80013594F82031EDB254
:103CB000AB4240F2B380444B53F825902FB207EB50
:103CC000071704EB070A504600F0F6F905EB051359
:103CD00023441B7C042B7DDC022B00F3918000F03D
:103CE0008D806319002283F81021E35D002BC3D17E
:103CF0009AF80130062B00F08580072B00F08A80AF
:103D0000022B00F09680032B00F09580002B00F032
:103D10009680012B00F09180042B00F09280052BFF
:103D20002A4B18BF0023B6E7FFBEFEE7032240235D
:103D3000C4E966237AE707226023C4E9662375E7AE
:103D40000F228023C4E9662370E71F22A023C4E961
:103D500066236BE73F22C023C4E9662366E77F2220
:103D6000E023C4E9662361E7FF224FF48073C4E9CE
:103D700066235BE740F2FF124FF49073C4E96623B9
:103D800054E740F2FF324FF4A073C4E966234DE7D5
:103D90009AF80130042B37D0052B3DD0002B40D0B2
:103DA000012B42D0022B42D0032B094B18BF00231A
:103DB00071E700BF00400030C840012400200240ED
:103DC000244201240002B025046601080000B84F17
:103DD0000020903603233E1D04EB05084FF0000B36
:103DE000264488F8103130460BF1010B00F064F9DD
:103DF00098F8103104365B45F5DC76E70123EAE7F5
:103E00000223E8E7104B46E7104B44E7002342E764
:103E10000F4B40E70F4B3EE70F4B3CE70FB0BDE8C1
:103E2000F08F0E4B37E7FFBEFEE70D4B33E70D4B30
:103E300031E70D4B2FE70D4B2DE70D4B2BE70D4BCE
:103E400029E70D4B27E700BF0800900C1000C010B9
:103E50002000F0148000501D000180210004002A81
:103E60000008302E001060320040C03A0080F03E62
:103E700000005247000021430000844B38B5094C34
:103E800040F2FF724FF0011104F5AE75284603F0C1
:103E900063F894F82021D4F854112846BDE838403E
:103EA00002F0CEBDC8400124064B0F29D3F854318F
:103EB00098BF03EB41031B8800EE103ABBEEC80A23
:103EC000704700BFC8400124214B02689A4200D0CD
:103ED0007047204A00232048D2F8D81030B51F4C34
:103EE00041F0200183B0C4F8C001092004F5E07559
:103EF000C4E971034FF48060C2F8D810D2F8D8201A
:103F00004FF40061C4E9733094F8380202F02002E3
:103F1000C4F8D4114FF40051984201922846C4F8D5
:103F2000D811C4E97833019B14BF00234FF4807388
:103F3000C4F8DC3103F088FA08B1FFBEFEE704F5EF
:103F4000AE73C4F8A851C4F8F83103B030BD00BF57
:103F5000002002400044025840000240C8400124B2
:103F6000014803F0E9BD00BF8842012402682DE941
:103F7000F84F4B4B9A4201D0BDE8F88F494D95F868
:103F80003832002BF8D095F82031002B77D0002460
:103F900005F10C0905F5997605F59077A04613E033
:103FA00003F0010117F811BCA9F1080000F06EF947
:103FB000BBF1010F25D895F82031013409F1110921
:103FC0000236A2B293422BD917F8012F002AF4D05F
:103FD000D5F854310021327833F81400D5F858312F
:103FE00003EB041323F81200338801339BB23380B0
:103FF0005FFA83FA3A789A42D2D88A46A6F80080C5
:10400000D0E7CAF34001A9F1040000F03FF9BBF189
:10401000020FCAF38001CED0484600F037F9CAE754
:10402000002395F83802204909229842C5F8C83182
:104030004FF48060C5F8C011C5F8C4214FF4006189
:104040004FF40052C5F8CC3108BF4FF48073C5F867
:10405000D821C5E9740100221448C5E97732C5F8B2
:10406000E42103F0F1F908B1FFBEFEE795F8202145
:10407000D5F854110E48BDE8F84F02F0E1BC0A49EA
:1040800009224FF48060C5F8C831C5E970124FF4B9
:1040900000614FF40052C5E97330C5E97512DAE7E3
:1040A00000200240C8400124400002408842012410
:1040B00024420124704700BF8378022B30B50446A8
:1040C0008FB037D0032B33D0012B31D000230A938C
:1040D000E378012B2AD0022B28D000230B93002356
:1040E00020460C9302F0D2F80546204602F0D6F89E
:1040F00023780990082B13D8DFE803F01F324558C6
:104100006B7E91A40500594BD3F8E02042F48072F5
:10411000C3F8E020D3F8E03003F480730893089BE1
:1041200009A9284604F05AF80FB030BD0B93D6E722
:104130000A93CDE711230A93CAE74C4B09A92846F5
:10414000D3F8E02042F00102C3F8E020D3F8E030D9
:1041500003F001030093009B04F040F80FB030BD62
:10416000424B09A92846D3F8E02042F00202C3F8E6
:10417000E020D3F8E03003F002030193019B04F048
:104180002DF80FB030BD394B09A92846D3F8E020EF
:1041900042F00402C3F8E020D3F8E03003F0040357
:1041A0000293029B04F01AF80FB030BD2F4B09A9FF
:1041B0002846D3F8E02042F00802C3F8E020D3F804
:1041C000E03003F008030393039B04F007F80FB0FB
:1041D00030BD264B09A92846D3F8E02042F0100252
:1041E000C3F8E020D3F8E03003F010030493049BFD
:1041F00003F0F4FF0FB030BD1C4B09A92846D3F8DB
:10420000E02042F02002C3F8E020D3F8E03003F0D1
:1042100020030593059B03F0E1FF0FB030BD134B66
:1042200009A92846D3F8E02042F04002C3F8E02074
:10423000D3F8E03003F040030693069B03F0CEFF73
:104240000FB030BD094B09A92846D3F8E02042F051
:104250008002C3F8E020D3F8E03003F08003079336
:10426000079B03F0BBFF0FB030BD00BF00440258F6
:1042700038B5054602F00AF80446284602F00EF862
:1042800001462046BDE8384004F0B0B970B5064696
:104290000D4601F0FBFF0446304601F0FFFF2A1EE9
:1042A0000146204618BF0122BDE8704004F0A4B9C1
:1042B0000023122270B586B0CDE90223049303686F
:1042C000032B01D804230593061D841D304601F0FD
:1042D000DDFF0546304601F0E1FF034601A928460F
:1042E000019303F07BFF204601F0D0FF03462046F8
:1042F0001C4601F0D3FF01A903462046019303F0B9
:104300006DFF06B070BD00BF634A0368934210B5ED
:104310008CB028D0614A934258D0614A934200F051
:104320009480604A934201D00CB010BD5E4C5F484F
:10433000D4F8E03043F00203C4F8E030D4F8E030C1
:1043400003F002030A930A9BFFF7B2FFD4F8F4309C
:1043500043F08003C4F8F430D4F8F43003F0800361
:104360000B930B9BE0E7504C5148D4F8E03043F0FE
:104370000203C4F8E030D4F8E03003F00203019304
:10438000019BFFF795FFD4F8E83000221F2043F48B
:1043900000131146C4F8E830D4F8E83003F40013F1
:1043A0000293029BD4F8D83043F00103C4F8D8300C
:1043B000D4F8D83003F001030393039B02F092FE7C
:1043C0001F200CB0BDE8104002F0CABE364C394880
:1043D000D4F8E03043F08003C4F8E030D4F8E030A3
:1043E00003F080030493049BD4F8E03043F002030D
:1043F000C4F8E030D4F8E03003F002030593059BE5
:10440000FFF756FFD4F8E8300022212043F4800360
:104410001146C4F8E830D4F8E83003F4800306937A
:10442000069BD4F8D83043F00103C4F8D830D4F850
:10443000D83003F001030793079B02F053FE2120BD
:104440000CB0BDE8104002F08BBE1B48FFF730FFF8
:10445000154B00224820D3F8E840114644F40004EC
:10446000C3F8E840D3F8E84004F400040894089C3A
:10447000D3F8D84044F00104C3F8D840D3F8D8307A
:1044800003F001030993099B02F02CFE48200CB0B5
:10449000BDE8104002F064BE0054004000580040E7
:1044A000005C0040001C0058004402589045012464
:1044B00008430124E0430124B84401242DE9F043DA
:1044C0001A4B87B000254FF010099E46EC46184B5A
:1044D000FF22E04667461A700EF118060EF130040E
:1044E000CDE90055CDE90255ADF80090BCE80F00CC
:1044F000CDE90455AEE80F009CE803000095ADF847
:1045000000908EE80300B8E80F000FC69CE8030097
:104510000095ADF8009086E803000FCF0FC49CE82B
:10452000030084E8030007B0BDE8F0831400002412
:104530000443012410B5EFF3108472B6084B1A78C7
:10454000120602D504B962B610BD1B78D822054800
:104550005BB202FB0300143003F0EEFAF2E700BF97
:104560000443012408430124014804F0DDBE00BFD8
:1045700094430124014804F0D7BE00BF6C440124D9
:10458000014804F0D1BE00BF444501242DE9F043A9
:104590000F68D8243F4D85B007FB04F4032F05EBCB
:1045A0000403036040DCCB680E46012B3CD84DD0A1
:1045B0004FF0D808B646DFF8FC9008FB0758BEE875
:1045C0000F00C446ACE80F00DEF800300DF1100E0D
:1045D000CCF80030D8F808C099E80F000EE90F00B9
:1045E0000EEB8703BCF1010F53F8103CC8F88C3078
:1045F00031D0BCF1020F42D0BCF1000F35D0317C7C
:104600008C34D823002201202C4403FB075349009B
:10461000C3E92602C3F894102046C3E92822C3E95F
:104620002A2204F073FC18B1012005B0BDE8F08324
:104630000146204604F084FE0028F5D101462046BC
:1046400004F0A8FE003818BF0120EEE70B7C103BF9
:10465000672BADD9E8E701F0EFF80F4B98420CBF9C
:104660000E4B0F4BC8F89030C9E701F0E5F80A4B44
:1046700098420CBF0B4B0C4BC8F89030BFE701F0D1
:10468000DBF8054B98420CBF084B094BC8F890303B
:10469000B5E700BF08430124000E27072D0FB030F7
:1046A0003211D0205F4390608A62E030200BA0106E
:1046B0001A098010606501082DE9F041D0F80080EA
:1046C00082B00D4617461E4608F18C04204604F0C1
:1046D00033FE2028FAD1D8F80C3073B96D0020468B
:1046E000089C33463A46A9B2009404F065FC0038B1
:1046F00018BF012002B0BDE8F081089B3246394660
:10470000204604F02DFDF2E7044B10221A7483F8C2
:10471000E82083F8C02183F89822704708430124D9
:1047200030B5002395B04FF48071062204460B93F8
:1047300006921393CDE90C13CDE90E33CDE9113375
:1047400001F07CF807282BD004F1100541F28832E3
:1047500006A9284605F070FD28B10123184684F803
:104760005C3015B030BD0222022306A92846CDE9EF
:10477000002310220123CDE9022300224FF48003FD
:10478000CDE9042305224FF0807306926A460F9309
:1047900041F2883305F0BCFE0028DED115B030BDF3
:1047A0000323012084F85C3015B030BD0000000008
:1047B00070B50023A4B04FF080724FF480750446AA
:1047C000ADF806300D93CDE910320122CDE90E533C
:1047D000CDE91223CDE91433002943D0F02300F1B1
:1047E000100508AEADF80630C02341F288323146DC
:1047F0002846089305F020FD28B10123184684F8C7
:104800005C3024B070BD41F288320DF106012846BB
:1048100005F07CFD03460028EFD105224FF480719E
:104820001E93284616924FF080721B9321931F927D
:1048300002AA9FED1F7BCDE91C13CDE922338DED3C
:10484000027B9FED1D7B41F2883316A98DED047B21
:104850009FED1B7B8DED067B05F05AFE0028CCD129
:1048600024B070BD00F1100508AE612341F288321A
:1048700031462846089305F0DFFC0028BDD141F2FF
:1048800088320DF10601284605F0BEFD0028B4D19E
:10489000BDF80630204623F0780343F04003ADF81E
:1048A0000630FFF73DFF00289ED0A6E7AFF300805B
:1048B00000000000010000001000000001000000E6
:1048C00000000000000040002DE9F04F00234FF4ED
:1048D000807501264FF0807804462DED028BABB039
:1048E0008DF8073013932193299314950E96CDF8E4
:1048F0005C80CDE91533CDE91863CDE91A33CDE9F4
:104900002253CDE92433CDE9273306231C9300F04D
:1049100095FF072808D004F1100741F288321CA93E
:10492000384605F089FC40B10123184684F85C3014
:104930002BB0BDEC028BBDE8F08F4FF0020A4FF0B8
:10494000020B4FF0050941F2883308AA1CA938462A
:10495000CDF89480CDF870909FED2D8BCDE908AB0C
:104960004FF0000A4FF4800B8DED0A8BCDE90CABB4
:1049700005F0CEFD0028D7D141F2883238460EA985
:1049800005F05AFC0028CFD1402341F288320DF1C6
:10499000070138468DF8073005F0B8FC0028C3D170
:1049A00041F288330EA902AA3846CDF83890CDF8E6
:1049B0005C809FED197B8DED048BCDE906AB8DED11
:1049C000027B05F0A5FD03460028ADD1CDF870901F
:1049D0004FF00109CDF894804FF00008219308AA08
:1049E00029931CA938462295CDE92333CDE92733F5
:1049F00041F288338DED0A8BCDE90CABCDE9088906
:104A000005F086FD002893D0304684F85C608FE77F
:104A10001000000001000000400000004000000005
:104A20002DE9F043624CA3B00D46046000F006FF90
:104A3000072800F0A980286823466968AA6807C388
:104A40001E46AB8926F8043B3046257B677B05F084
:104A5000D5FBE0B9574B012D4FF00108E061236110
:104A600014BF4FF480134FF40003C4E9058893FA90
:104A7000A3F3B3FA83F34FF48079013BC4F8249095
:104A8000C4E90B003046236205F04CFB38B101222B
:104A9000134684F85C20184623B0BDE8F0836623F3
:104AA0000B90139041F2883206A90693CDE90C9041
:104AB000CDE90E00CDE91100304605F0BDFB002820
:104AC000E5D1992341F2883206A93046069305F0D4
:104AD000B3FB0028DBD105231C9019906A46149380
:104AE0004FF08073219014A91D9341F288339FEDFC
:104AF0002A7BCDE91A90CDE91F008DED007B9FED5B
:104B0000287B30468DED027B9FED277B8DED047B6E
:104B100005F0FEFC0028BAD129462046FFF748FEE2
:104B20000028B4D12046FFF7CFFE03460028AED1BF
:104B3000002FB0D1189330460027002606AA14A9EA
:104B4000CDF86890CDE91F33EB2314934FF4406305
:104B50001B934FF4005317934FF440431C93A0232F
:104B60001693062319934FF0805321934FF040730F
:104B7000CDE906671D9305F043FD034600288AD062
:104B8000434684F85C8086E701230322184684F8B4
:104B90005C2023B0BDE8F0830000000001000000AD
:104BA00010000000010000000000000000004000B4
:104BB00068460124005000522DE9F04F8FB0414B60
:104BC0000024026800AF9A427C63C7E90944C7E940
:104BD0000B4403D03C37BD46BDE8F08F3A4B40F65E
:104BE00009213A48EB46D3F8D42007F11C0607F117
:104BF000220A4FF0020942F480424FF00308C3F842
:104C0000D420D3F8D42002F48042BA60BA68D3F832
:104C1000E02042F04002C3F8E020D3F8E02002F0A8
:104C20004002FA60FA68D3F8E02042F02002C3F8AC
:104C3000E020D3F8E02002F020023A613A69D3F88C
:104C4000E02042F01002C3F8E020D3F8E02002F0A8
:104C500010027A617A69D3F8E02042F00202C3F8C8
:104C6000E020D3F8E030F86103F002033984BB613F
:104C7000174B7B60BB697B6853F8040F7B6001F0C6
:104C800005FB7B680546186801F008FB16F8013B38
:104C9000786207F124012846C7F830807B63C7E9B2
:104CA0000A9403F09BFA5645E5D100225C20114698
:104CB00002F018FA5C2002F053FA3C37DD46BD469C
:104CC000BDE8F08F00500052004402580A0A09095A
:104CD000C4460124114B02689A4200D07047104A22
:104CE00070B5D2F8D4300F4C23F4804304F1180689
:104CF000C2F8D43054F8040F01F0C8FA0546206811
:104D000001F0CCFA0146284603F0A8FBB442F1D1E9
:104D10005C20BDE8704002F031BA00BF0050005284
:104D200000440258C4460124014805F0F5BC00BF08
:104D300078460124084B1A1D981D03F1080110B490
:104D40009C1C9A6603F10A02C3E91834C3E91B01EB
:104D50005DF8044B5A6770476846012438B503680C
:104D600071B9026A00F1280500F5AC74012A0CBF84
:104D7000002140218BBB1D4B5722C0F858310DE05C
:104D8000426A00F1C00500F5E874012A0CBF002159
:104D90004021EBB1164B5A22C0F8D03100232046F7
:104DA000C4E901214FF480524FF480616362626173
:104DB0004FF48042C4E903314FF48073C4E9062301
:104DC0004FF40033236202F03FFB58B1FFBEFEE711
:104DD000084B5822C0F8D031E0E7074B5922C0F801
:104DE0005831DBE7C5E92044A56338BD1000024017
:104DF0007000024028000240580002402DE9F043B4
:104E0000821D05468BB0031D05F10A010830CDE96E
:104E1000052305F10C02AB69CDE907010992002BCE
:104E20003DD0EB69B3FA83F84FEA58180123022208
:104E300005AE0AAF4FF006090393CDE9012356F8FA
:104E4000044B2B792278934216D02B68F3B1012BB7
:104E500002D1F2B10A230493204601F01FFA03465F
:104E60002046009301F012FA694603F0B7F9BE42FA
:104E7000E5D10BB0BDE8F083697963789942E4D15C
:104E8000B8F1000FF3D02B68002BE0D1CDF81090D3
:104E9000E2E76378022B14BF0A230823DBE74FF015
:104EA0000108C3E7534A0368934230B505468BB007
:104EB00055D02032934252D04F4A934204D02032F0
:104EC000934201D00BB030BD4C4C4D48D4F8E0308B
:104ED00043F00103C4F8E030D4F8E03003F00103FC
:104EE0000593059BD4F8E03043F00803C4F8E030A4
:104EF000D4F8E03003F008030693069BD4F8E030C2
:104F000043F04003C4F8E030D4F8E03003F040034D
:104F10000793079BD4F8F03043F40003C4F8F03053
:104F2000D4F8F03003F400030893089BFFF766FF02
:104F3000D4F8D830296843F001032F4A3048C4F828
:104F4000D830891AD4F8D83018BF012103F00103F2
:104F50000993099B0BB0BDE83040FFF7FFBE274C1B
:104F60002848D4F8E03043F00103C4F8E030D4F826
:104F7000E03003F001030093009BD4F8E03043F0ED
:104F80001003C4F8E030D4F8E03003F010030193CC
:104F9000019BD4F8E03043F04003C4F8E030D4F88B
:104FA000E03003F040030293029BD4F8F03043F466
:104FB0008003C4F8F030D4F8F03003F48003039396
:104FC000039BFFF71BFFD4F8D830296843F0010397
:104FD000084A0C48C4F8D830891AD4F8D83018BF19
:104FE000012103F001030493049B0BB0BDE83040A2
:104FF000FFF7B4BE04580140045C0140004402586D
:105000003C490124E0460124014802F095BD00BF5F
:1050100038480124014802F08FBD00BFB048012488
:10502000014802F089BD00BF944A0124014802F002
:1050300083BD00BF0C4B01241A4A0368934210B48D
:105040000BD02032934208D0174A934216D0203218
:10505000934213D05DF8044B7047144B0022D3F8F1
:105060005442C3F85822002CF4D0D3F84802D3E9B4
:10507000931223465DF8044B520818470B4B00224D
:10508000D3F8B044C3F8B424002CE3D0D3F8AC2454
:10509000D3F8A814D3F8A404520823465DF8044BAF
:1050A000184700BF04580140045C0140E046012459
:1050B000184A0368934210B40BD02032934208D0B0
:1050C000154A934217D02032934214D05DF8044B16
:1050D0007047124BD3E994245208C3F85822002C8D
:1050E000F4D0D3E99201234601EB820100EB820068
:1050F0005DF8044B1847094BD3F8AC24D3F8B044FF
:105100005208C3F8B424002CE0D0D3F8A814D3F884
:10511000A404E8E704580140045C0140E04601248F
:105120002DE9F04F0C684FF41776754F87B004FBEC
:1051300006F6012C07EB060AC0F800A000F3A080D9
:105140000D468E464FF00008D44669A3D3E90023EC
:1051500069A1D1E90001CDE9022306ABCAF850826A
:1051600003EB8403CDE9040153F810BC53F8083C69
:10517000CAE992880193BEE80F00ACE80F00BEE8D0
:105180000F00ACE80F00019B9EE80300CAF828B0AE
:10519000CAF8C0308CE803002B69042B0CD8DFE878
:1051A00003F0737D879103004FF41773554A03FB97
:1051B00004739A64C3F8E020AA692B6A002A43D0DA
:1051C000002B4FF4177308BF022203FB047318BFB0
:1051D0000322DA6201221A63EA696B6A002A40D16B
:1051E000191E4FF4177318BF012103FB0473C3E9A1
:1051F00031126B69022B05D8434A12F80380434AE7
:1052000052F823904FF4177306F12800424649469E
:1052100003FB04740023384463646363E365C4F8E8
:10522000DC30C4F8CC30C4F8F430C4E90F33C4E93E
:105230001533C4E93533C4E93B33022307F00EFBD1
:10524000002849D0FFBEFEE7191E4FF4177318BFA0
:10525000012103FB0473C3E90B12EA696B6A002A9C
:10526000BED0002B4FF4177308BF022203FB047358
:1052700018BF0322C3F8C4200122C3F8C820B8E72E
:10528000012007B0BDE8F08F4FF417734FF4FA52C6
:1052900003FB04739A64C3F8E0208DE74FF417739F
:1052A0004FF47A5203FB04739A64C3F8E02083E757
:1052B0004FF417734FF4FA4203FB04739A64C3F874
:1052C000E02079E74FF417734BF6803203FB047349
:1052D0009A64C3F8E0206FE706F1C000022342465B
:1052E0004946384407F0BAFA0028CAD0FFBEFEE7A4
:1052F00004580140045C014024580140245C0140F2
:10530000E046012400770100446601084866010870
:105310000068704770B5046882B015460E46C4F840
:105320005032C4E99212069AC4F85422A269012AA2
:1053300026D0626A012A9AB211D0294604F1C0002F
:10534000019207F047FB236A019A012B10D02946EE
:1053500004F1280007F03EFB002002B070BD04F10C
:10536000C000019207F0C8FB236A019A012BEED11D
:10537000314604F1280007F0BFFB002002B070BDE9
:10538000226A012A9AB211D0294604F1280001921A
:1053900007F020FB636A019A012B10D0294604F123
:1053A000C00007F017FB002002B070BD04F1280018
:1053B000019207F0A1FB636A019A012BEED13146FD
:1053C00004F1C00007F098FB002002B070BD00BFE0
:1053D00003681B69042B05D8044A02EB830393ED91
:1053E000000A70479FED020A704700BF546601082B
:1053F00000803B470368D3F858027047704700BFEE
:1054000008B501F053F8BDE8084001F033BF00BF14
:10541000064808B503680BB103F0F2F804480368C6
:105420001BB1BDE8084004F099B808BDB875012467
:10543000B06F0124064808B503680BB103F0E0F82B
:10544000044803681BB1BDE8084004F087B808BDF4
:10545000B8750124B06F0124064808B503680BB184
:1054600003F0CEF8044803681BB1BDE8084004F01F
:1054700075B808BDB8750124B06F0124364BDA6ADF
:10548000520062D59A6A9A6A9A6A9B6A180600D58F
:1054900000BE314B9B6A990600D500BE2E4B9B6A1D
:1054A000DA0600D500BE2C4B9B6A1B0700D500BE58
:1054B000294B9B6A980700D500BE274B9B6AD907EA
:1054C00000D500BE244B9B6A1A0400D500BE224BB7
:1054D0009B6A9B0400D500BE1F4B9B6AD80400D575
:1054E00000BE1D4B9B6A190500D500BE1A4B9B6A76
:1054F0005A0500D500BE184B9B6A9B0500D500BE1F
:10550000154B9B6AD80500D500BE134B9B6A9901C9
:1055100000D500BE104B9B6ADA0100D500BE0E4BD1
:105520009B6A1B0300D500BE0B4B9B6A580300D53A
:1055300000BE094B9B6A990300D500BE064B9B6ACF
:10554000DA0306D400BE00BEFEE7DB6A9B07FAD58D
:10555000F8E700BEF6E700BF00ED00E000F0B2BFE4
:1055600000F0B6BF2DE9F041CEB004464C22002138
:105570000AA80FF0D3FC2022002102A80FF0CEFCD5
:10558000BC2200211EA80FF0C9FC022004F0E2FC9E
:105590002368012B4FF0000354D0534A0225019396
:1055A000C820D16A514B21F00101D162D26A02F0C8
:1055B000010201929A6942F440429A619B6903F4A4
:1055C00040430193019B494A93699B04FCD5484998
:1055D0000224002201268B6A04274FF0080823F0DA
:1055E000030323438B62052316900AA818934FF4F4
:1055F00080331096179419941597CDF86880CDE9EB
:105600001B222122CDE91344CDE90A2305F08CF9B0
:1056100000B1FEE73F220323294602A8CDE9022379
:1056200000220823CDE9042340224023CDE90623AC
:1056300040234FF48062CDE9082305F0A3FC034624
:10564000B8B1FEE7294A04250093F0209169264B62
:1056500041F440419161926902F440420092DA6A59
:1056600042F00102DA62DB6A03F001030093009B5F
:10567000A9E720224FF4805125934FF440152B9237
:1056800080222D931EA83093269135914FF480717E
:10569000249234920C223394439140F227112092A9
:1056A0001022CDF884802A971F96CDE92E34CDE9BB
:1056B0003B334FF48033CDE92246319300244693A7
:1056C0000623CDE93E4527934FF48063094C2C9384
:1056D0001E94CDE9281205F0B1FE00B1FEE704F0FA
:1056E0005FFC4EB0BDE8F08100040058004802584D
:1056F000004402580F130F032DE9F0410D460446F4
:1057000084B0D1E9000184E8030000F09FFEAE7987
:10571000002E37D06F460BF089F9FEF7CFFE09F067
:1057200055FE0AF00DFF2B79002B54D16B799BB1FC
:10573000BFF34F8FBFF36F8F3C4B0022C3F8502253
:10574000BFF34F8FBFF36F8F5A6942F400325A6133
:10575000BFF34F8FBFF36F8F4FF0FF320023002452
:1057600000253946324802928DF80C30CDE90045CB
:105770000AF04CFA2E480AF0B1FA09F057FA04B0D0
:10578000BDE8F08120466F46FFF7ECFE012401F0F2
:105790001FFD4FF040534FF4807838460193254B5E
:1057A000ADF80040CDE9023801F030FD19224FF08C
:1057B000404338468DF80F40ADF80D808DF801401C
:1057C0008DF80A608DF80820019301F01FFD042078
:1057D00001F00CFD9FE7154C0023C4F88430BFF3A3
:1057E0004F8FD4F8803043F6E07EC3F3C906C3F38D
:1057F0004E334FEA431C0CEA0E00334640EA8372F4
:10580000013BC4F860225A1CF8D1ACF1200C1CF109
:10581000200FF0D1BFF34F8F636943F4803363618E
:10582000BFF34F8FBFF36F8F80E700BF00ED00E045
:10583000984B01240E00010305F0D4BC1C4B9B685F
:1058400003F17842B2F5003F25D3B3F5803F20D372
:1058500003F16042B2F5003F1FD303F15C42B2F5A1
:10586000002F1CD303F17042B2F5902F19D303F12E
:105870004842B2F5803F16D303F18042B2F1806F07
:1058800013D303F1E043B3F5000F2CBF082007202A
:1058900070470120704700207047022070470320A6
:1058A000704704207047052070470620704700BFEE
:1058B00000ED00E003480023034A044903600EF0B2
:1058C00045BD00BF984B012400000024FD53000893
:1058D00010B4204C0022204B83B0D4F888101F480D
:1058E00041F47001C4F8881019681D4C41F00101A1
:1058F00019601A61196808401A4918609A61DA61DA
:105900001A629A62DA621A635A639A63DA631A64F1
:105910005A64186820F4802018601A66D3F8DC20D6
:1059200042F06042C3F8DC20D3F8DC300193019BE5
:1059300023681940B1F1005F03D20B4B0122C3F879
:105940000821044B4FF000629A6003B05DF8044BED
:10595000704700BF00ED00E0004402587FEDF6EA1A
:105960000010005C0000FFFF00800051704700BF86
:105970000020704770B50446074E0D46304621465C
:1059800008F06AFC304608F089FC044B20462946A2
:105990001B689847002070BD483301249C6B01248C
:1059A00070B50446074E0D463046214608F054FCBB
:1059B000304608F073FC044B204629461B68984784
:1059C000002070BDE4350124A06B012400220949A8
:1059D000094808B508F036FC0849074808F03CFCBF
:1059E000074B1A680AB1002008BD064A00201A6059
:1059F00008BD00BF9C5B0124483301249C4B01245B
:105A00009C6B01246D59000800220949094808B51A
:105A100008F018FC0849074808F01EFC074B1A68F4
:105A20000AB1002008BD064A00201A6008BD00BF68
:105A30009C630124E43501249C530124A06B0124C0
:105A40006D59000820280AD0212806D1094B186872
:105A50009A889B7908608A808B7100207047054B7B
:105A60000868B1F804C08A7918600020A3F804C05F
:105A70009A7170478400002420280AD0212806D17A
:105A8000094B18689A889B7908608A808B7100207E
:105A90007047054B0868B1F804C08A791860002087
:105AA000A3F804C09A7170478C000024002070474E
:105AB00010B5094CD4F89032D3F814320BB1012050
:105AC00010BD0A460146204608F0BCFB2046BDE852
:105AD000104008F0C9BB00BF48330124014B1860D7
